:020000001C28BA
:100008007E1480312000111C1A2811104030F00095
:100018001F30F100F009F109710897007008960087
:100028000130E6070030E73DE83DE93D7E10090074
:100038001D28113084008330850020308600003070
:1000480087002830C723FA01FB01E601E701E80130
:10005800E901EA01EB017E1020008229E500B723BF
:100068007508E4007408E3007308E2007208E10010
:10007800650886008701540801398110031D811421
:100088006508860065080118592886000310811C38
:1000980003140030093DD50065088600D50D010818
:1000A8005506FD3955068100650886008701011D42
:1000B8005F28013060280030D50065088600870178
:1000C800811C6828013069280030550603197828F2
:1000D8006508043E860087016108C03F6208C13F89
:1000E8006308C23F6408C33F6508043E8600870171
:1000F8004321083E5D21031D8B285B085F02031D19
:100108008B285A085E02031D8B2859085D02650872
:10011800860087010318B628811D94280130952888
:100128000030D500650886008701811C9D280130B4
:100138009E28003055060319B328650886008701F4
:100148006921D50D01085506F7395506810065085E
:1001580086006508811DB428033E8600810A65086B
:1001680086008701692101085506FB39550681007B
:1001780065088600870165088119DB28043E86002A
:1001880043210C3E5D21031DD3285B085F02031D3C
:10019800D3285A085E02031DD32859085D020318A4
:1001A800DA28650A860087017721712165088600AB
:1001B8008701811DF9286508043E86004321103E09
:1001C8005D21031DF1285B085F02031DF1285A0811
:1001D8005E02031DF12859085D02650A8600870141
:1001E8000318FC287721003C7121650A86008701E5
:1001F8000108031909296508023E86008701650A76
:10020800840085010008810008006508023E860018
:10021800033087010106031D13296508CD236508EE
:10022800023E8600023087010106031D1D2965086C
:10023800CF237D21010B22296508792220007D2109
:10024800010F28296508E22120006508023E860082
:10025800FE3087010106031D33296508D023650890
:10026800023E8600FD3087010106031D3D29650811
:10027800CE236508023E8600870181010800403FC1
:10028800D500413FD600423FD700433FD800610820
:10029800D9006208DA006308DB006408DC0055084E
:1002A800D9025608DA3B5708DB3B5808DC3B65089F
:1002B80008008600403FDD00413FDE00423FDF008E
:1002C800433FE0005C0860020800010C0139D500DA
:1002D80065088600D50DD50D080081006508033E28
:1002E8008600810108006508033E84008501000836
:1002F80008006508023E860087010800B122200038
:100308008C1C8D296A08F200013039230230F20171
:1003180039230130FB01AA232000EA000B306A02CE
:10032800031C9B290130F20139232000EA012B220A
:100338009A23AB29DB21B723C8213A22D121B7233D
:10034800C8213A227A1048187A147B08E222003031
:1003580020008C180130D4003430322000300C18C2
:100368000130D400203032207A1D9E29DB21B723AA
:10037800C8213A22D121B723C8213A227A10481835
:100388007A1420006A08AA297508CF007408CE00DC
:100398007308CD007208CC000800FA104818FA1447
:1003A80032302000C800C901CA01CB01080003305F
:1003B800CB01CA01C900E830C8000800F900343A86
:1003C800031DFC2905307B0603197A1DEF292B2212
:1003D8009A237A11FC2905307B0603197A19FC291E
:1003E8002B229A2320000130EA01F20139237A15E1
:1003F8002030790603197A19080020008C1205307C
:100408007B06031D212A3122D000D1016A08F2009F
:100418000330F301F400F501852350087207D20078
:100428005108733DD3005208C8005308C900890D0C
:10043800893B8909CA00CB00262A3122C800C90194
:10044800CA01CB0170238C163230AC229A2BC830EB
:10045800CC00CD01CE01CF0108007B08C03E84004E
:1004680083300318013E850000080800D001D1013F
:10047800D201D3014B084A04490448040319702ADD
:10048800D401D40ACB1B4D2AC835C90DCA0DCB0DD2
:10049800452AD035D10DD20DD30D4B084F02031D7F
:1004A8005F2A4A084E02031D5F2A49084D02031DB0
:1004B8005F2A48084C02031C6A2A4808CC024908EB
:1004C800CD3B4A08CE3B4B08CF3B5014CB36CA0C29
:1004D800C90CC80CD40B4D2A5308CB005208CA00CB
:1004E8005108C9005008C8000800F900343A031D33
:1004F800080005307B0603197A1D912A3230AC2298
:100508009A230A3020006A0203188C2AEA0A8D2AE4
:10051800EA016A08F2000130392B06307B02031821
:10052800972AFB0A982AFB010630EB017B06031D7C
:10053800A92A2B229A2320000C168C165623B122A6
:10054800C830FB012000AC229A2B3230AC229A2B07
:10055800CC00CD01CE01CF010800723021009900F6
:1005680023008C01033021008C0020008C160C1213
:10057800981318174030F2001F30F300F209F309FE
:1005880073089700720896001110210011142000BA
:10059800181422001D100C30250093000130200093
:1005A8009C0025009101920120009A01FA309B00DD
:1005B8001C15250091010B178B170800F900FA1C70
:1005C8000C2B7A1C062B7908F200F3017308F5004E
:1005D80020006B087202F400031CF503013EF600CC
:1005E8000030753DF700803AF80080307802031D2E
:1005F800FF2A01307602031C062B20000C1E08007F
:100608000C12080020000C1A08000C16EB0A08004F
:1006180020000C1E0C16EB010800013400340034D5
:10062800003400340034003400341434003400340E
:100638000034FA34003400340034E834033400342D
:100648000034013400340034003400340034003401
:1006580000341434003400340034FA3400340034E4
:100668000034E834033400340034F30023009518D0
:100678003A2B7308910072089300151395131515FA
:1006880000308B1B0130F4008B1355309600AA30D4
:1006980096009514741C522B8B17532B8B13230025
:1006A8001511080021001D10200018100B138B13C2
:1006B8002700911493108B150000630000002000A0
:1006C8008C18632B270091108B1121001D1420001A
:1006D80018140B178B1708004B084A0449044804E0
:1006E800031908000330F8009830890B792BF80BB0
:1006F800792B01302000C8020030C93BCA3BCB3BF4
:10070800702BF601F701721C8D2B7408F60775081B
:10071800F73DF435F50DF336F20C72087304031D3A
:10072800872B7708F3007608F20008001B362500AF
:10073800910020004F08CB004E08CA004D08C900A0
:100748004C08C8007023250091010800F20023001E
:100758001518AB2B9518AB2B720891001513951330
:100768001514130808006908F5006808F4006708FC
:10077800F3006608F2000800053408340B340E3420
:10078800113414340034FE0012001E00FE0BC82B76
:0A0798000034080008000800080003
:020000040001F9
:04000E00840FFF1A42
:00000001FF
