:020000000A28CC
:10000800FE00030EF0000A08F100572B0B284830B9
:100018008313FD000230FE00EE30FF002030840024
:10002800BA23EB01EC01ED01EE01F701F801F9014A
:10003800F60183016729EA00DD234B08E9004A0835
:10004800E8004908E7004808E6006A0884005908FB
:10005800013983138010031D80146A0884006A081C
:100068000018472884000310801C0314003003186C
:100078000130DA006A088400DA0D00085A06FD39F2
:100088005A0680006A088400001D4C2801304D285B
:100098000030DA006A088400801C54280130552892
:1000A80000305A06031966286A08043E8400660868
:1000B8008000840A67088000840A68088000840A2F
:1000C800690880006A081B21083E4021031D762824
:1000D80060086402031D76285F086302031D762802
:1000E8005E0862026A08840003189928801D7E2829
:1000F80001307F280030DA006A088400801C8628D6
:100108000130872800305A06031997286A088400A6
:100118005921DA0D00085A06F7396121801D9828FF
:10012800033E8400800A6A088400592100085A06A0
:10013800FB3961218019B7281B210C3E4021031D82
:10014800AF2860086402031DAF285F086302031D1F
:10015800AF285E0862026A080318B728033E8400C5
:1001680000084F216A088400801DD2286A081B21D4
:10017800103E4021031DCA2860086402031DCA28D6
:100188005F086302031DCA285E0862020318D228AA
:100198006A08033E84000008003C4F216A0A840074
:1001A80000080319E1286A0A84000008FF006A08A9
:1001B800023E84007F08800008006A08023E84002E
:1001C80003300006031DEA286A08E6236A08023E8F
:1001D800840002300006031DF3286A08E8236A0831
:1001E800023E8400000BFA286A085B2283126A0820
:1001F800023E84008313000F03296A08C4216A0899
:10020800023E8400FE3083130006031D0D296A0890
:10021800E9236A08023E8400FD300006031D162902
:100228006A08E7236A08023E840080010800043E49
:1002380084000008DA00840A0008DB00840A000849
:10024800DC00840A0008DD006608DE006708DF00BD
:100258006808E0006908E1005A08DE025B08031C30
:100268005B0FDF025C08031C5C0FE0025D08031CE7
:100278005D0FE1026A08080084000008E200840AB1
:100288000008E300840A0008E400840A0008E50086
:10029800610865020800FF006A0A84007F08800080
:1002A8006A08033E840080010800000C0139DA0066
:1002B8006A088400DA0DDA0D08005A0680006A0818
:1002C80084006A080800C122851C71297708F40097
:1002D800013016230230F40116230130F801D2232D
:1002E800F7000B307702031C7D290130F401162337
:1002F800F701C83083128C22A6238F29BD21DD2364
:10030800AA211322B321DD23AA21132276104C1827
:10031800761478089122003085180130D9003430DD
:100328001F20003005180130D90020301F20761D0D
:100338008229BD21DD23AA211322B321DD23AA218D
:10034800132276104C18761477088E294B08D300A0
:100358004A08D2004908D1004808D0000800F61021
:100368004C18F61432308312CC00CD01CE01CF01E7
:1003780008000330CF01CE01CD00E830CC000800E2
:10038800D800343A031DDF29053078060319761D95
:10039800D229C8308C22A6237611DF2905307806A9
:1003A80003197619DF29C8308C22A6230130F701FA
:1003B800F40116237615203083125806031976198E
:1003C8000800851205307806031D062A7708C8003C
:1003D8000330C901CA00CB018D237808013E84008F
:1003E800C5234807D6000030031801304907D70055
:1003F8005608CC005708CD000030CD1BFF30CE008A
:10040800CF000E2A7808013E8400C523CC00CD0118
:10041800CE01CF013723851632308C22A62BD4018A
:10042800D501D601D7014F084E044D044C040319D9
:10043800522AD801D80ACF1B272A0310CC0DCD0D7C
:10044800CE0DCF0D1E2A0310D40DD50DD60DD70D08
:100458004F085302031D3A2A4E085202031D3A2A36
:100468004D085102031D3A2A4C085002031C4C2A1D
:100478004C08D0024D08031C4D0FD1024E08031C36
:100488004E0FD2024F08031C4F0FD302541403100F
:10049800CF0CCE0CCD0CCC0CD80B272A5708CF008C
:1004A8005608CE005508CD005408CC000800D600E8
:1004B800343A031D0800053078060319761D722AA0
:1004C80032308C22A6230A30770203186D2AF70AE5
:1004D8006E2AF7017708F4000130162B06307802EF
:1004E8000318782AF80A792AF8010630F9017806FB
:1004F800031D892AC8308C22A62305168516732366
:10050800C122C830F8018C22A62B32308C22A62BAF
:10051800D200D301D401D5010800F400F61CBC2A8E
:10052800761CB62A74088312C800C9014908CB0092
:1005380079084802CA00031CCB03013ECC004B08D3
:100548000318013ECD00803AFF0080307F02031D72
:10055800AF2A01304C028312031CB72A051E08007B
:10056800051208008312051A08000516F90A080082
:100578008312051E0516F9010800713083168F00D5
:1005880007308312990083169F0103308500831278
:10059800851605129010D030F4000730F500F409E4
:1005A800F50975088F0074088E000C1083160C145A
:1005B800831210140C3095000130920093019401BD
:1005C8009101FA30831692008312121593010B17CA
:1005D8008B17080001340034003400340034003430
:1005E800003400341434003400340034FA34003455
:1005F80000340034E8340334003400340134003467
:10060800003400340034003400340034143400342E
:1006180000340034FA34003400340034E83403344D
:10062800003400348312C80083169C18182B8312D8
:10063800480883169B0074089A001C1500308B1B11
:1006480001308312C9008B13553083169D00AA30E0
:100658009D009C148312491C332B8B17342B8B134E
:1006680083161C1108004F084E044D044C0403194E
:10067800080003308312D1009730D000D00B422BF2
:10068800D10B422B000001308312CC020030031C36
:100698000130CD020030031C0130CE020030031CB3
:1006A8000130CF02372B83120C1C6C2B0C10D0306E
:1006B800F2000730F300F209F30973088F0072089B
:1006C8008E00EB0A0319EC0A0319ED0A0319EE0A66
:1006D80071088A00700E8300FE0E7E0E09001F103E
:1006E80010100B138B130730990083168E16011701
:1006F800023096000B108B15000063000000831277
:100708008518832B8B110B101F1410140B178B17C4
:100718000800F401F501481C972B4A08F407031850
:10072800F50A4B08F5070310CA0DCB0D0310C90CC9
:10073800C80C48084904031D8F2B7508C9007408A4
:10074800C800080083160310120C83129300550882
:10075800CF005408CE005308CD005208CC003723F0
:10076800930108007E088A007F088200B623800073
:10077800840A04087D0603190034FF0A0319FE0AD7
:10078800BA2B03308A000408840A8207003405342F
:1007980008340B340E34113414340034F400831646
:1007A8001C18D32B9C18D32B74089B001C141A08F4
:1007B80008006E08CB006D08CA006C08C9006B08F9
:0C07C800C8000800080008000800080035
:02400E00C430BC
:00000001FF
